{
  "contractName": "uzair",
  "abi": [
    {
      "inputs": [
        {
          "internalType": "int256",
          "name": "_roll_number",
          "type": "int256"
        },
        {
          "internalType": "string",
          "name": "_name",
          "type": "string"
        },
        {
          "internalType": "bool",
          "name": "_vaccianted",
          "type": "bool"
        }
      ],
      "name": "setUserInfo",
      "outputs": [],
      "stateMutability": "nonpayable",
      "type": "function"
    },
    {
      "inputs": [],
      "name": "getUserInfo",
      "outputs": [
        {
          "internalType": "int256",
          "name": "",
          "type": "int256"
        },
        {
          "internalType": "string",
          "name": "",
          "type": "string"
        },
        {
          "internalType": "bool",
          "name": "",
          "type": "bool"
        }
      ],
      "stateMutability": "view",
      "type": "function",
      "constant": true
    }
  ],
  "bytecode": "0x608060405234801561001057600080fd5b506104e1806100206000396000f3fe608060405234801561001057600080fd5b50600436106100365760003560e01c8063152e9bb71461003b5780635d8d158514610057575b600080fd5b610055600480360381019061005091906102e1565b610077565b005b61005f6100b0565b60405161006e9392919061040c565b60405180910390f35b8360008190555082826001919061008f929190610161565b5080600260006101000a81548160ff02191690831515021790555050505050565b60006060600080546001600260009054906101000a900460ff168180546100d690610479565b80601f016020809104026020016040519081016040528092919081815260200182805461010290610479565b801561014f5780601f106101245761010080835404028352916020019161014f565b820191906000526020600020905b81548152906001019060200180831161013257829003601f168201915b50505050509150925092509250909192565b82805461016d90610479565b90600052602060002090601f01602090048101928261018f57600085556101d6565b82601f106101a857803560ff19168380011785556101d6565b828001600101855582156101d6579182015b828111156101d55782358255916020019190600101906101ba565b5b5090506101e391906101e7565b5090565b5b808211156102005760008160009055506001016101e8565b5090565b600080fd5b600080fd5b6000819050919050565b6102218161020e565b811461022c57600080fd5b50565b60008135905061023e81610218565b92915050565b600080fd5b600080fd5b600080fd5b60008083601f84011261026957610268610244565b5b8235905067ffffffffffffffff81111561028657610285610249565b5b6020830191508360018202830111156102a2576102a161024e565b5b9250929050565b60008115159050919050565b6102be816102a9565b81146102c957600080fd5b50565b6000813590506102db816102b5565b92915050565b600080600080606085870312156102fb576102fa610204565b5b60006103098782880161022f565b945050602085013567ffffffffffffffff81111561032a57610329610209565b5b61033687828801610253565b93509350506040610349878288016102cc565b91505092959194509250565b61035e8161020e565b82525050565b600081519050919050565b600082825260208201905092915050565b60005b8381101561039e578082015181840152602081019050610383565b838111156103ad576000848401525b50505050565b6000601f19601f8301169050919050565b60006103cf82610364565b6103d9818561036f565b93506103e9818560208601610380565b6103f2816103b3565b840191505092915050565b610406816102a9565b82525050565b60006060820190506104216000830186610355565b818103602083015261043381856103c4565b905061044260408301846103fd565b949350505050565b7f4e487b7100000000000000000000000000000000000000000000000000000000600052602260045260246000fd5b6000600282049050600182168061049157607f821691505b602082108114156104a5576104a461044a565b5b5091905056fea26469706673582212207210324f766efe378cda9a67d957aad5c88c306f142ebc61c86c8a7aa0cbeaa964736f6c634300080a0033",
  "immutableReferences": {},
  "source": "// SPDX-License-Identifier: MIT\r\npragma solidity >=0.4.22 <0.9.0;\r\n\r\ncontract uzair {\r\n    int private roll_number;\r\n    string private name;\r\n    bool private vaccinated;\r\n    address private owner;\r\n\r\n    function setUserInfo (int _roll_number, string calldata _name, bool _vaccianted) public{\r\n        roll_number = _roll_number;\r\n        name = _name;\r\n        vaccinated = _vaccianted;\r\n    }\r\n\r\n    function getUserInfo() public view returns(int, string memory,bool ){\r\n\r\n        return (roll_number, name, vaccinated);\r\n    }\r\n}",
  "sourcePath": "D:\\Blockchain\\uzair\\contracts\\uzair.sol",
  "compiler": {
    "name": "solc",
    "version": "0.8.10+commit.fc410830.Emscripten.clang"
  },
  "schemaVersion": "3.4.4",
  "updatedAt": "2022-01-04T13:13:23.000Z",
  "networkType": "ethereum",
  "devdoc": {
    "kind": "dev",
    "methods": {},
    "version": 1
  },
  "userdoc": {
    "kind": "user",
    "methods": {},
    "version": 1
  }
}